:100000005EC278C278C276C275C274C273C272C24E
:1000100071C284C26FC26EC26DC26CC26BC26AC250
:1000200069C268C267C203000000001000F8000047
:100030001000FC000010C0F8020010C0F0070070B3
:10004000C0300F0071C0700F0073C0E00F0072C0AD
:10005000C00F0072C0800F00C3000F0000A0C0F0EE
:100060000700A0C0F8020030A002F80030A007F09E
:100070000033000F000032500F800032500FC000DC
:1000800033500FE00031500F700030500F3000201F
:1000900030F007002030F802002000FC00002000B3
:1000A000F8000003000000001300FF0000D0003043
:1000B0000000D40078000072D001780072D003787C
:1000C00000627D800778617D80067840AD800730D2
:1000D00041A0C00F0040AB800730518B06807852A2
:1000E0008B07807852B003780052B0017800B400DA
:1000F000780000B0003000002300FF000003000083
:10010000000010007F00001000FF000010007F00C2
:100110000010903F8000609030C000619038C000B7
:1001200062901CC00060901EC00061900EC0006014
:10013000900FC000629007C000619003C000619002
:1001400001C00040903F800041007F0000004080DF
:100150003F000180C001000180C003000280C00791
:10016000000080C00F000180C00E000080C01E0093
:100170000280C01C000180C038000080C030000038
:1001800020803F0020007F00002000FF00002000B2
:100190007F00000100000000F0000C0000F00018DB
:1001A0000000F000380000F00070000090F001F056
:1001B0000090F003F000900003000093F003F000C3
:1001C0009C00030000900001000000000100000AF4
:1001D0000003000003F003F0000300030000000030
:1001E0000100000100000000FF1F181D16172A0E55
:1001F00010072A1E141C141E121916062803124872
:10020000150A10291369120F121D144F125D141EC6
:100210000604280B128811C912E001202186010E64
:100220001060000702850102000000002808081382
:100230002E1E2EF807E60300084001A000F02D1046
:100240002C50051004B00480018F130102171417FD
:1002500006190636021E1605021F161F06FF3F006E
:10026000208201120462001D20181442161A161270
:100270001413168214040004088408C408C40CD49F
:100280000C91089205A600822100E0303080E0F059
:100290003030E000003133B3B3F1303333F10000DC
:1002A000E6B3B33131333333E1000407030303030F
:1002B0000303030100001E3333381E0F33331E00C7
:1002C00000333333333F333333330000333333338B
:1002D000F3333333F300003030303030303030FD22
:1002E00000003C6666703C1E66663C0000D6D6D6B2
:1002F000DEEEEEC6C6C600000C0C0C7CCCCCCCCC22
:100300007C00003E06060606060606060000606043
:100310006060E0606060E00000EC666763E3666672
:1003200066E30000B3B0B0F0737030303300000605
:1003300006060607070606060000C66676363E660F
:1003400066663E0000BE8606063E0606063E0000C5
:10035000B1B19B9F9B9B9B8E8E000031191D0D0F91
:100360001919190F0000D6D6D6DEEEEEC6C6C600A5
:10037000008CCCEC6C7CCCCCCC7C0000CDECECECE0
:10038000FCDCDCDCCC000078CCCCCCEC0CCCCC782D
:100390000000D6D6D6DEEEEEC6C6C60000C6C66CD7
:1003A0007C6C6C6C383800008C8C8C8C8C8C8C8CBD
:1003B000BF0000191919191F191919190000E06057
:1003C0006060E0606060E000003330B0B0F3303077
:1003D00030F300003633B3B1F1333333F1000006AC
:1003E00003030101030303010000DBDB9B9F9B1B55
:1003F0001B0ECE000087C0C1C1C1C3C3C6870000A9
:10040000676C6C6CEC6C6C6CE70000181818187951
:10041000181818FB0000C6C66C7C6C6C6C38380071
:10042000003E666666666666663E0000C6667636AE
:100430003E6666663E00003C6666703C1E66663C34
:1004400000009BDBDBDFDBDBDBCE8E000007CCC0FC
:10045000C0F0F0C0CCC70000F89898989B9B989883
:10046000F8000078CD0D0D0D0D0DCD780000C0C049
:10047000F0D0D0E0E0C0C0000030303158585858BB
:1004800098980000C68685CDCDCDCDCC8C00000CD3
:1004900004040C0C0C0C0C07000B0A0908070403DD
:1004A0000201000605E1020D038902150441046DF5
:1004B00004E903650391033903BD03B50200112468
:1004C0001FBECFE5D4E0DEBFCDBF10E0A0E6B0E0B8
:1004D000EAEEFEE102C005900D92AA36B107D9F707
:1004E00020E0AAE6B0E001C01D92A03AB207E1F711
:1004F00093D4F9CC85CD1F920F920FB60F92112491
:100500008F938DEF82BF8EE083BF81E08093700078
:100510008F910F900FBE0F901F9018951F920F9202
:100520000FB60F9211242F923F925F926F927F929B
:100530008F929F92AF92BF92CF92DF92EF92FF92F3
:100540000F931F932F933F934F935F936F937F93DB
:100550008F939F93AF93BF93CF93DF93EF93FF93CB
:100560008FEF82BF80916D00869580936D0080B380
:1005700050906D00E0E88E9FC00111248529809382
:100580006D0080916A008F5F80936A008830B0F1BF
:1005900080917000811154C080916B0091E0980FA0
:1005A00090936B0090E050906D00FC01EE58FF4F6F
:1005B000508210926A0010926D0090916B008091B1
:1005C0006C009817D8F013BE10926A0080916F00EB
:1005D0008823A1F0809171008A3009F453C0809182
:1005E00071008A3109F44FC1809171008A3209F497
:1005F0008FC2809171008C3B09F4E3C0FF91EF91B1
:10060000DF91CF91BF91AF919F918F917F916F912A
:100610005F914F913F912F911F910F91FF90EF901C
:10062000DF90CF90BF90AF909F908F907F906F9012
:100630005F903F902F900F900FBE0F901F901895D6
:1006400091E090936F0080916D008A3209F496C01A
:1006500008F48FC0883C09F488C08C3F09F4AEC010
:100660008C3B09F4A4C010926C0010926F001092A1
:100670006B0080916D0080937100109270008DEF7F
:1006800082BF97CF8091720090918400907F8F708D
:10069000892B809384008091720090918500907FD7
:1006A00082958F70892B8093850080917300909143
:1006B0008600907F8F70892B8093860080917300D5
:1006C00090918700907F82958F70892B809387000F
:1006D0008091740090918800907F8F70892B809317
:1006E00088008091740090918900907F82958F702E
:1006F000892B809389008091750090918A00907F6A
:100700008F70892B80938A008091750090918B0067
:10071000907F82958F70892B80938B0080917600DB
:1007200090918C00907F8F70892B80938C008091AA
:10073000760090918D00907F82958F70892B8093A9
:100740008D008091770090918E00907F8F70892B23
:1007500080938E008091770090918F00907F82959A
:100760008F70892B80938F0049CF82E080936C003B
:100770007ECF8A3019F08A3109F075CF80916E00F2
:10078000816080936E0086E080936C0010926B0015
:1007900080916D0080937100109270008DEF82BF88
:1007A0008FEF8DBD81EB8CBD85E08EBD02CF80913A
:1007B0006E00826080936E0082E0E6CF90936C00C2
:1007C00056CF809172009091780080FDF4C29F7E98
:1007D0009093780086959091790080FDE8C29F7E85
:1007E00090937900869590917A0080FDDCC29F7E7F
:1007F00090937A00869590917B0080FDD0C29F7E79
:1008000090937B00869590917C0080FDC4C29F7E72
:1008100090937C00869590917D0080FDB8C29F7E6C
:1008200090937D00869590917E0080FDACC29F7E66
:1008300090937E00869509F4A0C280917F0080612C
:1008400080937F00809173009091800080FD91C221
:100850009F7E9093800086959091810080FD85C257
:100860009F7E9093810086959091820080FD79C251
:100870009F7E9093820081FF6EC280918300806191
:1008800080938300BBCE9091720080918400282FCA
:100890002F7030E1939FC00111248073822B8093CD
:1008A000840080917200909185009F708073892BE5
:1008B00080938500E0917200E695E695E370F0E0A4
:1008C000E05AFF4F80917800807F9081892B809340
:1008D0007800E091720080917900807FE295E69542
:1008E000E695E370F0E0E05AFF4F9081892B80930A
:1008F00079009091730080918600282F2F70E0E19D
:100900009E9FC00111248073822B8093860080916A
:100910007300909187009F708073892B809387006C
:10092000E0917300E695E695E370F0E0E05AFF4F42
:1009300080917A00807F9081892B80937A00E0916A
:10094000730080917B00807FE295E695E695E370E9
:10095000F0E0E05AFF4F9081892B80937B009091CB
:10096000740080918800282F2F7030E1939FC00180
:1009700011248073822B8093880080917400909161
:1009800089009F708073892B80938900E0917400A7
:10099000E695E695E370F0E0E05AFF4F80917C0029
:1009A000807F9081892B80937C00E09174008091FE
:1009B0007D00807FE295E695E695E370F0E0E05AF1
:1009C000FF4F9081892B80937D00909175008091DD
:1009D0008A00282F2F70E0E19E9FC00111248073B0
:1009E000822B80938A008091750090918B009F707C
:1009F0008073892B80938B00E0917500E695E695D6
:100A0000E370F0E0E05AFF4F80917E00807F90819C
:100A1000892B80937E00E091750080917F00807F1C
:100A2000E295E695E695E370F0E0E05AFF4F90819D
:100A3000892B80937F009091760080918C00282FE5
:100A40002F7030E1939FC00111248073822B80931B
:100A50008C008091760090918D009F708073892B1F
:100A600080938D00E0917600E695E695E370F0E0E6
:100A7000E05AFF4F80918000807F9081892B809386
:100A80008000E091760080918100807FE295E6957C
:100A9000E695E370F0E0E05AFF4F9081892B809358
:100AA00081009091770080918E00282F2F70E0E1D7
:100AB0009E9FC00111248073822B80938E008091B1
:100AC000770090918F009F708073892B80938F00A7
:100AD000E0917700E695E695E370F0E0E05AFF4F8D
:100AE00080918200807F9081892B80938200E091A9
:100AF000770080918300807FE295E695E695E3702C
:100B0000F0E0E05AFF4F9081892B8093830076CDEF
:100B100090917200809184008F73582E90FB662410
:100B200060F8712CC30100249695879507949695DB
:100B300087950794982F802D852980350CF080E2C9
:100B4000809384008091720084FB882480F8912C2B
:100B50000024969487940794969487940794982CED
:100B6000802C809185008F73882980350CF080E27D
:100B70008093850090917300809186008F7390FB25
:100B8000AA24A0F8B12C0024B694A7940794B69494
:100B9000A7940794BA2CA02C8A2980350CF080E207
:100BA000809386008091730084FB222720F930E037
:100BB0000024369527950794369527950794322F6C
:100BC000202D809187008F73282B20350CF020E298
:100BD0002093870090917400809188008F73492F33
:100BE000417050E0002456954795079456954795D7
:100BF0000794542F402D482B40350CF040E2409391
:100C000088008091740084FB662760F970E00024FE
:100C1000769567950794769567950794762F602D5E
:100C2000809189008F73682B60350CF060E26093CF
:100C300089009091750080918A008F7390FB222427
:100C400020F8312CF1010024F695E7950794F695EC
:100C5000E7950794FE2FE02DE82BE0350CF0E0E25D
:100C6000E0938A008091750084FBAA27A0F9B0E088
:100C70000024B695A7950794B695A7950794BA2F23
:100C8000A02D80918B008F73A82BA0350CF0A0E2D3
:100C9000A0938B009091760080918C008F7391705F
:100CA000C92F30E0D32F0024D695C7950794D69549
:100CB000C7950794DC2FC02DC82BC0350CF0C0E2BF
:100CC000C0938C008091760084FB002700F910E02F
:100CD0000024169507950794169507950794102FED
:100CE000002D80918D008F73082B00350CF000E2F1
:100CF00000938D009091770080918E008F7390FB10
:100D0000EE24E0F8F12C0024F694E7940794F6948E
:100D1000E7940794FE2CE02C8E2980350CF080E2BD
:100D200080938E008091770084FBCC24C0F8D12C76
:100D30000024D694C7940794D694C7940794DC2CC7
:100D4000C02C80918F008F738C2980350CF080E24D
:100D500080938F0053CC809183008F7E809383009B
:100D60004DCC90619093820086CD906190938100EC
:100D70007ACD9061909380006ECD80917F008F7EC0
:100D800080937F005FCD906190937E0053CD906102
:100D900090937D0047CD906190937C003BCD906116
:100DA00090937B002FCD906190937A0023CD90613A
:100DB0009093790017CD9061909378000BCD1092AD
:100DC0006E0082B3827E82BB81B3827E81BB85B797
:100DD0008C6085BF8AB780688ABF8BB780688BBFFD
:100DE00013BE8DEF82BF88B7816088BF89B78160ED
:100DF00089BF7894089598B7892F847092FF0BC0AB
:100E00001EBC88B7846088BF80916E0090916E0090
:100E1000982790936E00089511D0D1DF8B988D9A0A
:100E200002C0C1FD08C0E7DFC82F80FFFACF85E30D
:100E3000A6D0C1FFF8CF85E2DAD4F5CFCF93DF9308
:100E4000979A8F9A96988E9A74D62FEF80E792E0B1
:100E5000215080409040E1F700C00000969AAFEF2B
:100E6000B1EE24E0A150B0402040E1F700C0000006
:100E700097988FEF90E7A2E081509040A040E1F773
:100E800000C00000979ABFEF20E782E0B1502040F9
:100E90008040E1F700C000005BD688E781D680E0A3
:100EA0007FD68EEA7DD688EA7BD68FE179D683ED30
:100EB00077D680E075D680E473D681EA71D680EC6F
:100EC0006FD681E86DD687E86BD685ED69D680E868
:100ED00067D689ED65D682E263D68AED61D682E176
:100EE0005FD68BED5DD680E25BD68DE859D680E18A
:100EF00057D686EA55D684EA53D68FEA51D680E291
:100F00004FD680E04DD633D623D688E749D680E049
:100F100047D681E245D680E043D68FE741D627D633
:100F200017D688E73DD680E03BD682E239D680E00E
:100F300037D683E035D61BD60BD688E731D680E48A
:100F40002FD6C0E8D0E080E02BD680E029D680E024
:100F500027D680E025D62197B1F709D64CE050E09E
:100F600060E270E084E890E0B7D78CE0E8E7F0E07A
:100F7000DF011D928A95E9F7DF91CF9108952F92B5
:100F80003F924F925F926F927F928F929F92AF9219
:100F9000BF92CF92DF92EF92FF920F931F93CF9366
:100FA000DF93CDB7DEB7AB970FB6F894DEBF0FBEB9
:100FB000CDBF182FE4EAF4E0849190E0E0918F0037
:100FC000F0E0EE0FFF1FE751FE4F25913491FC0139
:100FD000EE0FFF1F41E050E04C0F5D1FE40FF51FC7
:100FE000318320831E0159E1250E311CF101E80FE8
:100FF000F91F209183002083E3EAF4E0849190E0DC
:10100000E0918E00F0E0EE0FFF1FE751FE4F2591BB
:101010003491FC01EE0FFF1F41E050E04C0F5D1FCB
:10102000E40FF51F31832083F101E80FF91F2091B0
:1010300082002083E2EAF4E0849190E0E0918D0068
:10104000F0E0EE0FFF1FE751FE4F25913491FC01B8
:10105000EE0FFF1F41E050E04C0F5D1FE40FF51F46
:1010600031832083F101E80FF91F20918100208353
:10107000E1EAF4E0849190E0E0918C00F0E0EE0F82
:10108000FF1FE751FE4F25913491FC01EE0FFF1F2A
:1010900041E050E04C0F5D1FE40FF51F31832083CA
:1010A000F101E80FF91F209180002083E0EAF4E0CD
:1010B000849190E0E0918B00F0E0EE0FFF1FE7518C
:1010C000FE4F25913491FC01EE0FFF1F41E050E0EF
:1010D0004C0F5D1FE40FF51F31832083F101E80FF2
:1010E000F91F20917F002083EFE9F4E0849190E0E4
:1010F000E0918A00F0E0EE0FFF1FE751FE4F2591CF
:101100003491FC01EE0FFF1F41E050E04C0F5D1FDA
:10111000E40FF51F31832083F101E80FF91F2091BF
:101120007E002083EEE9F4E0849190E0E091890074
:10113000F0E0EE0FFF1FE751FE4F25913491FC01C7
:10114000EE0FFF1F41E050E04C0F5D1FE40FF51F55
:1011500031832083F101E80FF91F20917D00208366
:10116000EDE9F4E0849190E0E0918800F0E0EE0F8A
:10117000FF1FE751FE4F25913491FC01EE0FFF1F39
:1011800041E050E04C0F5D1FE40FF51F31832083D9
:10119000F101E80FF91F20917C002083ECE9F4E0D5
:1011A000849190E0E0918700F0E0EE0FFF1FE7519F
:1011B000FE4F25913491FC01EE0FFF1F41E050E0FE
:1011C0004C0F5D1FE40FF51F31832083F101E80F01
:1011D000F91F20917B002083EBE9F4E0849190E0FB
:1011E000E0918600F0E0EE0FFF1FE751FE4F2591E2
:1011F0003491FC01EE0FFF1F41E050E04C0F5D1FEA
:10120000E40FF51F31832083F101E80FF91F2091CE
:101210007A002083EAE9F4E0849190E0E09185008F
:10122000F0E0EE0FFF1FE751FE4F25913491FC01D6
:10123000EE0FFF1F41E050E04C0F5D1FE40FF51F64
:1012400031832083F101E80FF91F20917900208379
:10125000E9E9F4E0849190E0E0918400F0E0EE0FA1
:10126000FF1FE751FE4F25913491FC01EE0FFF1F48
:1012700041E050E04C0F5D1FE40FF51F31832083E8
:10128000F101E80FF91F20917800208361D488E7ED
:1012900087D480E085D481E283D4812F81D481E317
:1012A000810F7ED464D454D488E77AD480E078D493
:1012B00082E276D480E074D483E072D458D448D4E7
:1012C00088E76ED480E46CD486E2E82E80E0F82EC5
:1012D000612C712C80916400909165009FA38EA376
:1012E000F70114911F3F09F486C03196849131961D
:1012F00024912DA33196049145E0640E711C319622
:10130000F491912F92959F7061E070E002C0660F9A
:10131000771F9A95E2F7982F92959F7041E050E0E1
:1013200002C0440F551F9A95E2F7E82FEF70AA24E8
:10133000A394B12C02C0AA0CBB1CEA95E2F78091E1
:101340006800909169006816790608F06DC0C09039
:101350006600D0906700DE011196410180E9482EB9
:1013600080E0582E0AA7FBA7F9A6E8A6F12E122FB7
:1013700025C0EEA1FFA16E167F0638F030E03327BE
:10138000269537952227822B932B9C0126233723E2
:10139000232BF1F400E09C0124233523232B11F0AF
:1013A000FAA50F2B8A219B21892B11F02BA5022B4B
:1013B000F20101932F012A163B0661F08D919D9158
:1013C000F40121914F016C147D0498F22695D6CF3B
:1013D000012FE1CF1F2DE8A4F9A4EAD41150812FE9
:1013E0008F708F30D1F7F5E0EF0EF11CF7011491FB
:1013F0001F3F09F07ACFAB960FB6F894DEBF0FBE51
:10140000CDBFDF91CF911F910F91FF90EF90DF90B3
:10141000CF90BF90AF909F908F907F906F905F9094
:101420004F903F902F90A3C329813A81898D869553
:10143000869590E09927869597958827822B932B00
:101440009C0126233723232B09F4CFC1EDA1A02F24
:10145000AE2B9C0124233523232B09F4C4C12A2F4E
:101460003F2F322B8A219B21892B09F0232F209398
:1014700090002B813C818A8D8695869590E09927F6
:10148000869597958827822B932B9C0126233723BB
:10149000232B09F4A6C1ADA1E02FEA2B9C01242344
:1014A0003523232B09F09BC12A2F3F2F322B8A2172
:1014B0009B21892B09F0232F209391002D813E81C0
:1014C0008B8D8695869590E09927869597958827A8
:1014D000822B932B9B0128233923232B09F47DC1D5
:1014E000ADA1E02FEA2B9A0128233923232B09F001
:1014F00072C12A2F3F2F322B8A219B21892B09F081
:10150000232F209392002F8138858C8D8695869588
:1015100090E09927869597958827822B932B9B019E
:1015200028233923232B09F454C1ADA1E02FEA2B42
:101530009A0128233923232B09F049C12A2F3F2F51
:10154000322B8A219B21892B09F0232F2093930092
:1015500029853A858D8D8695869590E09927869583
:1015600097958827822B932B9B0128233923232BA4
:1015700009F42BC1ADA1E02FEA2B9A0128233923CE
:10158000232B09F020C12A2F3F2F322B8A219B21A8
:10159000892B09F0232F209394002B853C858E8D79
:1015A0008695869590E09927869597958827822B32
:1015B000932B9B0128233923232B09F402C1ADA1CE
:1015C000E02FEA2B9A0128233923232B09F0F7C0B7
:1015D0002A2F3F2F322B8A219B21892B09F0232F81
:1015E000209395002D853E858F8D8695869590E07C
:1015F0009927869597958827822B932B9B012823E3
:101600003923232B09F4D9C0ADA1E02FEA2B9A018D
:1016100028233923232B09F0CEC02A2F3F2F322B2A
:101620008A219B21892B09F0232F209396002F8557
:10163000388988A18695869590E099278695979513
:101640008827822B932B9B0128233923232B09F4F2
:10165000B0C0ADA1E02FEA2B9A0128233923232B18
:1016600009F0A5C02A2F3F2F322B8A219B21892BDD
:1016700009F0232F2093970029893A8989A186951B
:10168000869590E09927869597958827822B932BAE
:101690009B0128233923232B09F487C0ADA1E02F18
:1016A000EA2B9A0128233923232B09F07CC02A2F07
:1016B0003F2F322B8A219B21892B09F0232F209346
:1016C00098002B893C898AA18695869590E0992778
:1016D000869597958827822B932B9B012823392366
:1016E000232B09F45EC0ADA1E02FEA2B9A01282339
:1016F0003923232B09F053C02A2F3F2F322B8A2165
:101700009B21892B09F0232F209399002D893E8955
:101710008BA18695869590E0992786959795882741
:10172000822B932B9B0128233923232BB1F1ADA1CD
:10173000E02FEA2B9A0128233923232B61F52A2F46
:101740003F2F322B8A219B21892B09F0232F2093B5
:101750009A002F89388D8CA18695869590E09927DF
:10176000869597958827822B932B68237923672B5F
:1017700081F0DDA00D2948235923452B09F40D2DB7
:10178000F02BA822B922AB2809F00F2F00939B0061
:1017900024CED12CEFCF2E2FD3CFA0E0C9CF2E2F28
:1017A000ACCFA0E0A1CF2E2F83CFA0E078CF2E2FFB
:1017B0005ACFA0E04FCF2E2F31CFA0E026CF2E2F33
:1017C00008CFA0E0FDCE2E2FDFCEA0E0D4CE2E2F6E
:1017D000B6CEA0E0ABCE2E2F8DCEA0E082CE2E2FA7
:1017E00064CEA0E059CE2E2F3BCEE0E030CE2F923B
:1017F0003F924F925F926F927F928F929F92AF92A1
:10180000BF92CF92DF92EF92FF920F931F93CF93ED
:10181000DF93C82F9DD188E7C3D180E0C1D181E299
:10182000BFD18C2FBDD18AE08C0FBAD1A0D190D17D
:1018300088E7B6D180E0B4D182E2B2D180E0B0D105
:1018400083E0AED194D184D188E7AAD180E4A8D135
:101850008BEBA82E84E0B82E99EBC92E94E0D92EFC
:1018600005EB14E0C3EBD4E021EB822E24E0922EB2
:101870003FEA632E34E0732E4DEA442E44E0542EAA
:101880005BEA252E54E0352EE12CF12CB7C0849173
:10189000E82FF0E0E057FF4F1082F6018591949118
:1018A00020917900EAE9F4E024FD39C18491E82F20
:1018B000F0E0E057FF4F1082E7EBF4E08591949160
:1018C00020917A00EBE9F4E024FD1FC18491E82F18
:1018D000F0E0E057FF4F1082F8018591949120913C
:1018E0007B00ECE9F4E024FD06C18491E82FF0E0F0
:1018F000E057FF4F1082FE018591949120917C006A
:10190000EDE9F4E024FDEDC08491E82FF0E0E0572C
:10191000FF4F1082F4018591949120917D00EEE9B2
:10192000F4E024FDD4C08491E82FF0E0E057FF4FAD
:101930001082F3018591949120917E00EFE9F4E00B
:1019400024FDBBC08491E82FF0E0E057FF4F1082E8
:10195000F2018591949120917F00E0EAF4E024FD6A
:10196000A2C08491E82FF0E0E057FF4F1082F10110
:101970008591949120918000E1EAF4E024FD89C0F2
:101980008491E82FF0E0E057FF4F1082E9EAF4E09D
:101990008591949120918100E2EAF4E024FD6FC0EA
:1019A0008491E82FF0E0E057FF4F1082E7EAF4E07F
:1019B0008591949120918200E3EAF4E024FD55C0E2
:1019C0008491E82FF0E0E057FF4F1082E5EAF4E061
:1019D0008591949120918300E4EAF4E024FD21C0F4
:1019E0008491E82FF0E0E057FF4F1082E1D1FFEF44
:1019F000EF1AFF0A8CE2E816F10421F1F501859156
:101A0000949120917800E9E9F4E024FF40CFA4917B
:101A1000FC01EE0DFF1D8491B0E0A057BF4F8C93E9
:101A20003CCFA491FC01EE0DFF1D8491B0E0A057C6
:101A3000BF4F8C93BDD1FFEFEF1AFF0A8CE2E8167F
:101A4000F104E1F6DF91CF911F910F91FF90EF909C
:101A5000DF90CF90BF90AF909F908F907F906F90CE
:101A60005F904F903F902F9082C0A491FC01EE0DAB
:101A7000FF1D8491B0E0A057BF4F8C93A7CFA491D6
:101A8000FC01EE0DFF1D8491B0E0A057BF4F8C9379
:101A90008DCFA491FC01EE0DFF1D8491B0E0A05705
:101AA000BF4F8C9373CFA491FC01EE0DFF1D849169
:101AB000B0E0A057BF4F8C935ACFA491FC01EE0D1C
:101AC000FF1D8491B0E0A057BF4F8C9341CFA491EC
:101AD000FC01EE0DFF1D8491B0E0A057BF4F8C9329
:101AE00028CFA491FC01EE0DFF1D8491B0E0A0571A
:101AF000BF4F8C930FCFA491FC01EE0DFF1D84917D
:101B0000B0E0A057BF4F8C93F6CEA491FC01EE0D30
:101B1000FF1D8491B0E0A057BF4F8C93DDCEA49100
:101B2000FC01EE0DFF1D8491B0E0A057BF4F8C93D8
:101B3000C3CE85B38F6185BB84B38F6184BB88B30B
:101B40008F6D88BB87B38F6D87BBAD9AA59A0895BB
:101B5000AD9A85E090E0FC013197F1F725B3207E46
:101B600025BB28B3207228BB0197F1F7089585B3F0
:101B7000807E85BB88B3807288BB85E090E0FC01E5
:101B80003197F1F7AD9AE3E0F0E03197F1F725B343
:101B90002F6125BB28B32F6D28BB0197F1F708955E
:101BA000AD98E3E0F0E03197F1F795B387FDCFC052
:101BB000907E95BB98B3907298BBE5E0F0E0DF01B2
:101BC0001197F1F7AD9A3197F1F7880FAD98E3E0EF
:101BD000F0E03197F1F795B387FDE4C0907E95BBB7
:101BE00098B3907298BBE5E0F0E0DF011197F1F750
:101BF000AD9A3197F1F7880FAD98E3E0F0E03197B7
:101C0000F1F795B387FDC8C0907E95BB98B39072ED
:101C100098BBE5E0F0E0DF011197F1F7AD9A31975D
:101C2000F1F7880FAD98E3E0F0E03197F1F795B365
:101C300087FDACC0907E95BB98B3907298BBE5E0F1
:101C4000F0E0DF011197F1F7AD9A3197F1F7880FC6
:101C5000AD98E3E0F0E03197F1F795B387FD90C0E0
:101C6000907E95BB98B3907298BBE5E0F0E0DF0101
:101C70001197F1F7AD9A3197F1F7880FAD98E3E03E
:101C8000F0E03197F1F795B387FD74C0907E95BB76
:101C900098B3907298BBE5E0F0E0DF011197F1F79F
:101CA000AD9A3197F1F7880FAD98E3E0F0E0319706
:101CB000F1F795B387FD58C0907E95BB98B39072AD
:101CC00098BBE5E0F0E0DF011197F1F7AD9A3197AD
:101CD000F1F7AD98E3E0F0E03197F1F786FD3DC014
:101CE00085B3807E85BB88B3807288BB85E090E039
:101CF000FC013197F1F7AD9AFC013197F1F7AD98FE
:101D0000E3E0F0E03197F1F724B3207E24BB27B362
:101D1000207227BB25B32F6125BB28B32F6D28BBAD
:101D200025B32F6125BB28B32F6D28BBFC0131974C
:101D3000F1F7AD9AFC013197F1F7AD980197F1F702
:101D400084B38F6184BB87B38F6D87BB08959F6118
:101D500095BB98B39F6D98BB30CF85B38F6185BB22
:101D600088B38F6D88BBC2CF9F6195BB98B39F6DC1
:101D700098BBA7CF9F6195BB98B39F6D98BB8BCF46
:101D80009F6195BB98B39F6D98BB6FCF9F6195BBCB
:101D900098B39F6D98BB53CF9F6195BB98B39F6DD0
:101DA00098BB37CF9F6195BB98B39F6D98BB1BCFF6
:101DB000CF92DF92EF92FF920F931F93CF93DF9317
:101DC00048E080E8C0909100D0909200E0909300AD
:101DD000F09094000091950010919600D09197009A
:101DE000C0919800B0919900A0919A0050919B00E9
:101DF00063E070E0AD9898B3907225B3207E309187
:101E00009000382309F09160382F3C2109F092604E
:101E1000382F3D2109F09460382F3E2109F0986059
:101E2000382F3F2109F09061382F302309F090645A
:101E3000382F312309F09068382F3D2309F02160B5
:101E4000382F3C2309F02260382F3B2309F024600F
:101E5000382F3A2309F02860382F352309F0206104
:101E600098BB25BBAD9AFB013197F1F786954150A0
:101E700009F0C0CFAD9883E090E00197F1F784B30B
:101E8000807E84BB87B3807287BB85B38F6185BB3F
:101E900088B38F6D88BB85B38F6185BB88B38F6D29
:101EA00088BB85E090E0FC013197F1F7AD9AFC0129
:101EB0003197F1F7AD980197F1F784B38F6184BB47
:101EC00087B38F6D87BBDF91CF911F910F91FF90EB
:101ED000EF90DF90CF900895DC0101C06D934150E9
:0A1EE0005040E0F70895F894FFCF9A
:0A1EEA000002060372019501AE012B
:00000001FF
