:100000005EC278C278C276C275C274C273C272C24E
:1000100071C288C26FC26EC26DC26CC26BC26AC24C
:1000200069C268C267C203000000001000F8000047
:100030001000FC000010C0F8020010C0F0070070B3
:10004000C0300F0071C0700F0073C0E00F0072C0AD
:10005000C00F0072C0800F00C3000F0000A0C0F0EE
:100060000700A0C0F8020030A002F80030A007F09E
:100070000033000F000032500F800032500FC000DC
:1000800033500FE00031500F700030500F3000201F
:1000900030F007002030F802002000FC00002000B3
:1000A000F8000003000000001300FF0000D0003043
:1000B0000000D40078000072D001780072D003787C
:1000C00000627D800778617D80067840AD800730D2
:1000D00041A0C00F0040AB800730518B06807852A2
:1000E0008B07807852B003780052B0017800B400DA
:1000F000780000B0003000002300FF000003000083
:10010000000010007F00001000FF000010007F00C2
:100110000010903F8000609030C000619038C000B7
:1001200062901CC00060901EC00061900EC0006014
:10013000900FC000629007C000619003C000619002
:1001400001C00040903F800041007F0000004080DF
:100150003F000180C001000180C003000280C00791
:10016000000080C00F000180C00E000080C01E0093
:100170000280C01C000180C038000080C030000038
:1001800020803F0020007F00002000FF00002000B2
:100190007F00000100000000F0000C0000F00018DB
:1001A0000000F000380000F00070000090F001F056
:1001B0000090F003F000900003000093F003F000C3
:1001C0009C00030000900001000000000100000AF4
:1001D0000003000003F003F0000300030000000030
:1001E0000100000100000000FF1F181D16172A0E55
:1001F00010072A1E141C141E121916062803124872
:10020000150A10291369120F121D144F125D141EC6
:100210000604280B128811C912E001202186010E64
:100220001060000702850102000000002808081382
:100230002E1E2EF807E60300084001A000F02D1046
:100240002C50051004B00480018F130102171417FD
:1002500006190636021E1605021F161F06FF3F006E
:10026000208201120462001D20181442161A161270
:100270001413168214040004088408C408C40CD49F
:100280000C91089205A600822100808080808080E9
:100290008080E00000E1616161616161616700008F
:1002A0003330B0B0F0F0B0B0300000030301010112
:1002B0000001010300003C6666703C1E66663C005F
:1002C000006060606060606060F800008CCCEC6C86
:1002D0007CCCCCCC7D000079CCCCCCEC0CCCCC78DC
:1002E0000000E0303080E0F03030E000003133B327
:1002F000B3F1303333F10000E6B3B331313333338C
:10030000E1000407030303030303030100001E339A
:1003100033381E0F33331E0000333333333F333350
:100320003333000033333333F3333333F3000030EC
:1003300030303030303030FD000060606060E060B0
:100340006060E000006C6667E3E3E66666630000F9
:100350008D8D8D8D8E8E8C8CEC0000010101010144
:10036000010101070000D6D6D6DEEEEEC6C6C600F5
:10037000008CCCEC6C7CCCCCCC7C0000CDECECECE0
:10038000FCDCDCDCCC000078CCCCCCEC0CCCCC782D
:100390000000D6D6D6DEEEEEC6C6C60000C6C66CD7
:1003A0007C6C6C6C383800008C8C8C8C8C8C8C8CBD
:1003B000BF0000191919191F1919191900007C0C0F
:1003C0000C0C0C0C0C0C0C00003C6666703C1E66A1
:1003D000663C00008C8C8C8C8C8C8C8CBF00001943
:1003E0001D1D1D1F1B1B1B19000080C0C0C0C0C0ED
:1003F000C0C0800000676CCCC0C0C0CC8C8700003F
:10040000EC6C6667666666636300000300000000CC
:10041000000000000000DBDB9B9F9B1B1B0ECE003F
:100420000087C0C1C1C1C3C3C6870000676C6C6CC4
:10043000EC6C6C6CE700001818181879181818FB89
:100440000000000000000000000000000018183E3E
:100450001A1A1C1C181800003312123333333333AA
:100460001E0000000000000000000000000000006E
:100470000000000000000000003E060C1C38303078
:10048000361C000033121233333333331E000000A6
:100490000000000000000000000B0A090807040328
:1004A0000201000605E102BD03890239039103152B
:1004B000046D0441046503B502E9030D0300112432
:1004C0001FBECFE5D4E0DEBFCDBF10E0A0E6B0E0B8
:1004D000EEE2FDE102C005900D92AC37B107D9F70D
:1004E00020E0ACE7B0E001C01D92AC3DB207E1F7FF
:1004F000B8D31BCC85CD1F920F920FB60F9211244B
:100500008F93829B09C08DEF82BF8EE083BF81E015
:1005100080938E0010927C008F910F900FBE0F90F1
:100520001F9018951F920F920FB60F9211242F93C0
:100530003F934F935F936F938F939F93AF93BF932B
:10054000CF93DF93EF93FF938FEF82BF829BF3C232
:1005500080917F00869580937F0090B320917F00EB
:1005600030E8939FC0011124822B80937F008091FB
:100570007C008F5F80937C0090918E00992309F41A
:100580004FC0883008F44CC081E080938D0080918A
:100590007F008F708A3069F4809175008823F9F0AC
:1005A000E0917F00E295EF70F0E0E05AFF4F80812C
:1005B0000DC080917F008C3B61F018F48C38B9F04D
:1005C00011C0883CA1F08C3F69F482E080937E00EA
:1005D0000EC080917500882311F083E0F7CF109250
:1005E0008D0005C010927E0010928D0013BE1092F7
:1005F0007D0080917F0080939B0010927C00109280
:100600008E008DEF82BF80918D00882309F493C204
:1006100080917E0081118FC210928D0013BE8BC21B
:10062000843008F488C280918E00811184C21092B7
:100630007C00E0917D0081E08E0F80937D00F0E0F2
:1006400080917F0082958F70E855FF4F8083909155
:100650007D0080917E00981708F46DC213BE8091D2
:100660009B008A3809F474C118F58A3309F48DC0E7
:1006700060F48A3109F46BC08A3209F477C08A3099
:1006800009F059C280E090E055C08A3509F4E5C010
:1006900030F48A3409F04FC280E090E09EC08A3680
:1006A00009F404C18A3709F046C280E090E03FC1F6
:1006B0008A3C09F48DC100F58A3A09F469C130F425
:1006C0008A3909F038C280E090E053C18A3B09F4CE
:1006D00070C18C3B09F02FC23091AA008091A90013
:1006E0002091A80040E1849FC0011124932B822B0C
:1006F000E4EBF0E02CE00AC28A3E09F4A7C130F432
:100700008A3D09F018C28AE090E082C18A3F09F46C
:10071000C9C18C3F09F00FC28091A8008D3029F427
:100720009091A90081E09F3009F080E08170809372
:100730007500F1C1FC01E855FF4F2081FC01E05834
:10074000FF4F208301968C309105A1F7E4C180E032
:1007500090E0FC01E855FF4F2081FC01E456FF4F7B
:10076000208301968C309105A1F7D5C180E090E0FF
:10077000FC01E855FF4F2081FC01E157FF4F20832A
:1007800001968C309105A1F7C6C121E030E080E0F0
:1007900090E0FC013696EF01C058DF4F4881DC0144
:1007A000A058BF4F4C93E456FF4F4081DC01A45644
:1007B000BF4F4C93DC01AA0FBB1FA855BF4F4C91F4
:1007C0004883D901A855BF4F4C91408301962E5FB5
:1007D0003F4F86309105E9F69EC19C012C5F3F4F4B
:1007E000F901E058FF4F4081FC01E058FF4F408382
:1007F000F901E456FF4F4081FC01E456FF4F40836E
:10080000F901E157FF4F2081FC01E157FF4F2083A1
:1008100001968830910509F720E030E0F901E855AC
:10082000FF4F4081FC01E058FF4F4083F901E7553D
:10083000FF4F4081FC01E456FF4F4083F901E6552C
:10084000FF4F4081FC01E157FF4F40832D5F3F4F39
:1008500001962C30310511F75EC121E030E085E0D2
:1008600090E0AC014A5F5F4FDC01A058BF4F6C9134
:10087000FA01E058FF4F6083FC01E456FF4F6081AE
:10088000EA01C456DF4F6883E901C955DF4F48814B
:100890004C93D901A855BF4F4C91408301972E5FCF
:1008A0003F4F8F3F4FEF9407E1F635C187E090E06F
:1008B0009C012C5F3F4FFC01E058FF4F4081F90144
:1008C000E058FF4F4083FC01E456FF4F4081F9019F
:1008D000E456FF4F4083FC01E157FF4F4081F9018F
:1008E000E157FF4F4083019718F780E090E043E025
:1008F000242F30E0FC01E855FF4F5081F901E0580A
:10090000FF4F5083FC01E755FF4F5081F901E4563A
:10091000FF4F50834150FC01E655FF4F5081F901D4
:10092000E157FF4F508303964F3F11F7F4C0FC018E
:100930000196DC01A058BF4F2C91E058FF4F208357
:100940008B309105A1F78091A80080938B00E3C0C4
:1009500080E090E0FC010196DC01A456BF4F2C9191
:10096000E456FF4F20838B309105A1F78091A800BA
:100970004CC0FC010196DC01A157BF4F2C91E157FF
:10098000FF4F20838B309105A1F78091A80087C08D
:100990008AE090E0FC01E058FF4F2081FC01EF5716
:1009A000FF4F20830197B0F78091A80080938000CB
:1009B000B2C08AE090E0FC01E456FF4F2081FC01C8
:1009C000E356FF4F20830197B0F78091A8003BC00A
:1009D00080E090E09C010196FC01E058FF4F4081CF
:1009E000F901E058FF4F4083FC01E456FF4F40817E
:1009F000F901E456FF4F40838B30910559F7809100
:100A0000A80080938B008091A9008093A70083C0E9
:100A10009C012F5F3F4FFC01E058FF4F4081F901DF
:100A2000E058FF4F4083FC01E456FF4F4081F9013D
:100A3000E456FF4F4083019758F78091A8008093B8
:100A400080008091A90080939C0065C080E090E0C8
:100A50009C010196FC01E058FF4F4081F901E058EC
:100A6000FF4F4083FC01E456FF4F4081F901E456FB
:100A7000FF4F4083FC01E157FF4F4081F901E157EF
:100A8000FF4F40838B30910519F78091A800809328
:100A90008B008091A9008093A7008091AA00809389
:100AA0009A0039C08AE090E09C012F5F3F4FFC0123
:100AB000E058FF4F4081F901E058FF4F4083FC01AF
:100AC000E456FF4F4081F901E456FF4F4083FC019B
:100AD000E157FF4F4081F901E157FF4F40830197F4
:100AE00018F78091A800809380008091A9008093DE
:100AF0009C008091AA0080938F000DC03F7E3083C0
:100B00009695879521503196222329F0308180FFD8
:100B1000F5CF3061F4CF80918C00816080938C00A0
:100B200080918C00826080938C008FEF8DBD81EB73
:100B30008CBD85E08EBDFF91EF91DF91CF91BF918C
:100B4000AF919F918F916F915F914F913F912F91B5
:100B50000F900FBE0F901F90189510928C0082B3CB
:100B6000827E82BB81B3827E81BB85B78C6085BF6C
:100B70008AB780688ABF8BB780688BBF13BE8DEF42
:100B800082BF88B7816088BF89B7816089BF789448
:100B90000895EF92FF920F931F93CF93DF9308B6C0
:100BA00002FC02C080E056C01EBC88B7846088BFCB
:100BB00080918C0090918C00982790938C008823D2
:100BC00089F3909174009923D1F1C0ECD0E0A4EBAB
:100BD000B0E040E050E0FA01E157FF4F20818A0188
:100BE00004561F4FF8019081FA01E058FF4FE08151
:100BF000622F617070E07B0126E0EE0CFF1C2A95ED
:100C0000E1F79370F0E19F9F900111242E292E2B84
:100C1000203508F020E22993F80120819C91907FF3
:100C2000E22FE695E695F0E0E059FF4F2081922B08
:100C30009D934F5F5F4F4C30510569F60BC0E0EC60
:100C4000F0E0A4EBB0E090E291931D9220E0EC3C48
:100C5000F207D1F7DF91CF911F910F91FF90EF90A5
:100C600008950ED07ADF8B988D9A93DFC82F80FF7E
:100C700002C085E3A6D0C1FFF8CF85E2DAD4F5CF74
:100C8000CF93DF93979A8F9A96988E9A74D62FEF78
:100C900080E792E0215080409040E1F700C00000E2
:100CA000969AAFEFB1EE24E0A150B0402040E1F7BA
:100CB00000C0000097988FEF90E7A2E0815090402D
:100CC000A040E1F700C00000979ABFEF20E782E064
:100CD000B15020408040E1F700C000005BD688E7BB
:100CE00081D680E07FD68EEA7DD688EA7BD68FE1FA
:100CF00079D683ED77D680E075D680E473D681EA25
:100D000071D680EC6FD681E86DD687E86BD685ED1D
:100D100069D680E867D689ED65D682E263D68AED2A
:100D200061D682E15FD68BED5DD680E25BD68DE841
:100D300059D680E157D686EA55D684EA53D68FEA4B
:100D400051D680E24FD680E04DD633D623D688E701
:100D500049D680E047D681E245D680E043D68FE78A
:100D600041D627D617D688E73DD680E03BD682E22B
:100D700039D680E037D683E035D61BD60BD688E748
:100D800031D680E42FD6C0E8D0E080E02BD680E0DA
:100D900029D680E027D680E025D62197B1F709D65D
:100DA0004CE050E060E270E080EC90E0B7D78CE07F
:100DB000E4EBF0E0DF011D928A95E9F7DF91CF9136
:100DC00008952F923F924F925F926F927F928F92EF
:100DD0009F92AF92BF92CF92DF92EF92FF920F93CA
:100DE0001F93CF93DF93CDB7DEB7AB970FB6F894D1
:100DF000DEBF0FBECDBF182FE4EAF4E0849190E08F
:100E0000E091CB00F0E0EE0FFF1FE751FE4F259180
:100E10003491FC01EE0FFF1F41E050E04C0F5D1FCD
:100E2000E40FF51F318320831E0159E1250E311C8B
:100E3000F101E80FF91F2091BF002083E3EAF4E0FD
:100E4000849190E0E091CA00F0E0EE0FFF1FE751BF
:100E5000FE4F25913491FC01EE0FFF1F41E050E061
:100E60004C0F5D1FE40FF51F31832083F101E80F64
:100E7000F91F2091BE002083E2EAF4E0849190E023
:100E8000E091C900F0E0EE0FFF1FE751FE4F259102
:100E90003491FC01EE0FFF1F41E050E04C0F5D1F4D
:100EA000E40FF51F31832083F101E80FF91F209132
:100EB000BD002083E1EAF4E0849190E0E091C80075
:100EC000F0E0EE0FFF1FE751FE4F25913491FC013A
:100ED000EE0FFF1F41E050E04C0F5D1FE40FF51FC8
:100EE00031832083F101E80FF91F2091BC0020839A
:100EF000E0EAF4E0849190E0E091C700F0E0EE0FCA
:100F0000FF1FE751FE4F25913491FC01EE0FFF1FAB
:100F100041E050E04C0F5D1FE40FF51F318320834B
:100F2000F101E80FF91F2091BB002083EFE9F4E005
:100F3000849190E0E091C600F0E0EE0FFF1FE751D2
:100F4000FE4F25913491FC01EE0FFF1F41E050E070
:100F50004C0F5D1FE40FF51F31832083F101E80F73
:100F6000F91F2091BA002083EEE9F4E0849190E02B
:100F7000E091C500F0E0EE0FFF1FE751FE4F259115
:100F80003491FC01EE0FFF1F41E050E04C0F5D1F5C
:100F9000E40FF51F31832083F101E80FF91F209141
:100FA000B9002083EDE9F4E0849190E0E091C40081
:100FB000F0E0EE0FFF1FE751FE4F25913491FC0149
:100FC000EE0FFF1F41E050E04C0F5D1FE40FF51FD7
:100FD00031832083F101E80FF91F2091B8002083AD
:100FE000ECE9F4E0849190E0E091C300F0E0EE0FD2
:100FF000FF1FE751FE4F25913491FC01EE0FFF1FBB
:1010000041E050E04C0F5D1FE40FF51F318320835A
:10101000F101E80FF91F2091B7002083EBE9F4E01C
:10102000849190E0E091C200F0E0EE0FFF1FE751E5
:10103000FE4F25913491FC01EE0FFF1F41E050E07F
:101040004C0F5D1FE40FF51F31832083F101E80F82
:10105000F91F2091B6002083EAE9F4E0849190E042
:10106000E091C100F0E0EE0FFF1FE751FE4F259128
:101070003491FC01EE0FFF1F41E050E04C0F5D1F6B
:10108000E40FF51F31832083F101E80FF91F209150
:10109000B5002083E9E9F4E0849190E0E091C0009C
:1010A000F0E0EE0FFF1FE751FE4F25913491FC0158
:1010B000EE0FFF1F41E050E04C0F5D1FE40FF51FE6
:1010C00031832083F101E80FF91F2091B4002083C0
:1010D00061D488E787D480E085D481E283D4812FEE
:1010E00081D481E3810F7ED464D454D488E77AD448
:1010F00080E078D482E276D480E074D483E072D445
:1011000058D448D488E76ED480E46CD486E2E82EC4
:1011100080E0F82E612C712C809176009091770000
:101120009FA38EA3F70114911F3F09F486C0319647
:101130008491319624912DA33196049145E0640E5B
:10114000711C3196F491912F92959F7061E070E03F
:1011500002C0660F771F9A95E2F7982F92959F70BD
:1011600041E050E002C0440F551F9A95E2F7E82F86
:10117000EF70AA24A394B12C02C0AA0CBB1CEA9560
:10118000E2F780917A0090917B006816790608F06A
:101190006DC0C0907800D0907900DE0111964101B9
:1011A0008CEC482E80E0582E0AA7FBA7F9A6E8A6EB
:1011B000F12E122F25C0EEA1FFA16E167F0638F08A
:1011C00030E03327269537952227822B932B9C01DD
:1011D00026233723232BF1F400E09C01242335231D
:1011E000232B11F0FAA50F2B8A219B21892B11F0BB
:1011F0002BA5022BF20101932F012A163B0661F069
:101200008D919D91F40121914F016C147D0498F210
:101210002695D6CF012FE1CF1F2DE8A4F9A4EAD45B
:101220001150812F8F708F30D1F7F5E0EF0EF11C48
:10123000F70114911F3F09F07ACFAB960FB6F894DF
:10124000DEBF0FBECDBFDF91CF911F910F91FF90F9
:10125000EF90DF90CF90BF90AF909F908F907F9056
:101260006F905F904F903F902F90A3C329813A8158
:10127000898D8695869590E09927869597958827FC
:10128000822B932B9C0126233723232B09F4CFC1D8
:10129000EDA1A02FAE2B9C0124233523232B09F491
:1012A000C4C12A2F3F2F322B8A219B21892B09F081
:1012B000232F2093CC002B813C818A8D86958695A7
:1012C00090E09927869597958827822B932B9C01F0
:1012D00026233723232B09F4A6C1ADA1E02FEA2B47
:1012E0009C0124233523232B09F09BC12A2F3F2F58
:1012F000322B8A219B21892B09F0232F2093CD00AB
:101300002D813E818B8D8695869590E099278695D7
:1013100097958827822B932B9B0128233923232BF6
:1013200009F47DC1ADA1E02FEA2B9A0128233923CE
:10133000232B09F072C12A2F3F2F322B8A219B21A8
:10134000892B09F0232F2093CE002F8138858C8D97
:101350008695869590E09927869597958827822B84
:10136000932B9B0128233923232B09F454C1ADA1CE
:10137000E02FEA2B9A0128233923232B09F049C1B6
:101380002A2F3F2F322B8A219B21892B09F0232FD3
:101390002093CF0029853A858D8D8695869590E09E
:1013A0009927869597958827822B932B9B01282335
:1013B0003923232B09F42BC1ADA1E02FEA2B9A018D
:1013C00028233923232B09F020C12A2F3F2F322B2A
:1013D0008A219B21892B09F0232F2093D0002B8574
:1013E0003C858E8D8695869590E099278695979574
:1013F0008827822B932B9B0128233923232B09F445
:1014000002C1ADA1E02FEA2B9A0128233923232B17
:1014100009F0F7C02A2F3F2F322B8A219B21892BDD
:1014200009F0232F2093D1002D853E858F8D869541
:10143000869590E09927869597958827822B932B00
:101440009B0128233923232B09F4D9C0ADA1E02F18
:10145000EA2B9A0128233923232B09F0CEC02A2F07
:101460003F2F322B8A219B21892B09F0232F209398
:10147000D2002F85388988A18695869590E0992796
:10148000869597958827822B932B9B0128233923B8
:10149000232B09F4B0C0ADA1E02FEA2B9A01282339
:1014A0003923232B09F0A5C02A2F3F2F322B8A2165
:1014B0009B21892B09F0232F2093D30029893A8976
:1014C00089A18695869590E0992786959795882796
:1014D000822B932B9B0128233923232B09F487C0CC
:1014E000ADA1E02FEA2B9A0128233923232B09F001
:1014F0007CC02A2F3F2F322B8A219B21892B09F078
:10150000232F2093D4002B893C898AA18695869528
:1015100090E09927869597958827822B932B9B019E
:1015200028233923232B09F45EC0ADA1E02FEA2B39
:101530009A0128233923232B09F053C02A2F3F2F48
:10154000322B8A219B21892B09F0232F2093D50050
:101550002D893E898BA18695869590E09927869561
:1015600097958827822B932B9B0128233923232BA4
:10157000B1F1ADA1E02FEA2B9A0128233923232BC7
:1015800061F52A2F3F2F322B8A219B21892B09F0CD
:10159000232F2093D6002F89388D8CA18695869590
:1015A00090E09927869597958827822B932B68231F
:1015B0007923672B81F0DDA00D2948235923452B82
:1015C00009F40D2DF02BA822B922AB2809F00F2F1A
:1015D0000093D70024CED12CEFCF2E2FD3CFA0E075
:1015E000C9CF2E2FACCFA0E0A1CF2E2F83CFA0E06C
:1015F00078CF2E2F5ACFA0E04FCF2E2F31CFA0E0A3
:1016000026CF2E2F08CFA0E0FDCE2E2FDFCEA0E0DC
:10161000D4CE2E2FB6CEA0E0ABCE2E2F8DCEA0E016
:1016200082CE2E2F64CEA0E059CE2E2F3BCEE0E00E
:1016300030CE2F923F924F925F926F927F928F9215
:101640009F92AF92BF92CF92DF92EF92FF920F9351
:101650001F93CF93DF93C82F9DD188E7C3D180E03C
:10166000C1D181E2BFD18C2FBDD18AE08C0FBAD11C
:10167000A0D190D188E7B6D180E0B4D182E2B2D1D6
:1016800080E0B0D183E0AED194D184D188E7AAD1F3
:1016900080E4A8D18BEBA82E84E0B82E99EBC92E5C
:1016A00094E0D92E05EB14E0C3EBD4E021EB822EBD
:1016B00024E0922E3FEA632E34E0732E4DEA442E4E
:1016C00044E0542E5BEA252E54E0352EE12CF12C1B
:1016D000B7C08491E82FF0E0E453FF4F1082F60189
:1016E000859194912091B500EAE9F4E024FD39C197
:1016F0008491E82FF0E0E453FF4F1082E7EBF4E031
:10170000859194912091B600EBE9F4E024FD1FC18E
:101710008491E82FF0E0E453FF4F1082F8018591A7
:1017200094912091B700ECE9F4E024FD06C1849186
:10173000E82FF0E0E453FF4F1082FE018591949171
:101740002091B800EDE9F4E024FDEDC08491E82F8C
:10175000F0E0E453FF4F1082F401859194912091C1
:10176000B900EEE9F4E024FDD4C08491E82FF0E064
:10177000E453FF4F1082F301859194912091BA00B8
:10178000EFE9F4E024FDBBC08491E82FF0E0E453DE
:10179000FF4F1082F201859194912091BB00E0EA05
:1017A000F4E024FDA2C08491E82FF0E0E453FF4F61
:1017B0001082F101859194912091BC00E1EAF4E05E
:1017C00024FD89C08491E82FF0E0E453FF4F10829C
:1017D000E9EAF4E0859194912091BD00E2EAF4E019
:1017E00024FD6FC08491E82FF0E0E453FF4F108296
:1017F000E7EAF4E0859194912091BE00E3EAF4E0F9
:1018000024FD55C08491E82FF0E0E453FF4F10828F
:10181000E5EAF4E0859194912091BF00E4EAF4E0D8
:1018200024FD21C08491E82FF0E0E453FF4F1082A3
:10183000E1D1FFEFEF1AFF0A8CE2E816F10421F183
:10184000F501859194912091B400E9E9F4E024FF39
:1018500040CFA491FC01EE0DFF1D8491B0E0A45394
:10186000BF4F8C933CCFA491FC01EE0DFF1D8491E2
:10187000B0E0A453BF4F8C93BDD1FFEFEF1AFF0A26
:101880008CE2E816F104E1F6DF91CF911F910F9100
:10189000FF90EF90DF90CF90BF90AF909F908F9090
:1018A0007F906F905F904F903F902F9082C0A49157
:1018B000FC01EE0DFF1D8491B0E0A453BF4F8C934B
:1018C000A7CFA491FC01EE0DFF1D8491B0E0A453BD
:1018D000BF4F8C938DCFA491FC01EE0DFF1D849121
:1018E000B0E0A453BF4F8C9373CFA491FC01EE0DD5
:1018F000FF1D8491B0E0A453BF4F8C935ACFA491A5
:10190000FC01EE0DFF1D8491B0E0A453BF4F8C93FA
:1019100041CFA491FC01EE0DFF1D8491B0E0A453D2
:10192000BF4F8C9328CFA491FC01EE0DFF1D849135
:10193000B0E0A453BF4F8C930FCFA491FC01EE0DE8
:10194000FF1D8491B0E0A453BF4F8C93F6CEA491B9
:10195000FC01EE0DFF1D8491B0E0A453BF4F8C93AA
:10196000DDCEA491FC01EE0DFF1D8491B0E0A453E7
:10197000BF4F8C93C3CE85B38F6185BB84B38F611A
:1019800084BB88B38F6D88BB87B38F6D87BBAD9ADF
:10199000A59A0895AD9A85E090E0FC013197F1F7A2
:1019A00025B3207E25BB28B3207228BB0197F1F711
:1019B000089585B3807E85BB88B3807288BB85E03F
:1019C00090E0FC013197F1F7AD9AE3E0F0E0319758
:1019D000F1F725B32F6125BB28B32F6D28BB0197E5
:1019E000F1F70895AD98E3E0F0E03197F1F795B3A2
:1019F00087FDCFC0907E95BB98B3907298BBE5E011
:101A0000F0E0DF011197F1F7AD9A3197F1F7880F08
:101A1000AD98E3E0F0E03197F1F795B387FDE4C0CE
:101A2000907E95BB98B3907298BBE5E0F0E0DF0143
:101A30001197F1F7AD9A3197F1F7880FAD98E3E080
:101A4000F0E03197F1F795B387FDC8C0907E95BB64
:101A500098B3907298BBE5E0F0E0DF011197F1F7E1
:101A6000AD9A3197F1F7880FAD98E3E0F0E0319748
:101A7000F1F795B387FDACC0907E95BB98B390729B
:101A800098BBE5E0F0E0DF011197F1F7AD9A3197EF
:101A9000F1F7880FAD98E3E0F0E03197F1F795B3F7
:101AA00087FD90C0907E95BB98B3907298BBE5E09F
:101AB000F0E0DF011197F1F7AD9A3197F1F7880F58
:101AC000AD98E3E0F0E03197F1F795B387FD74C08E
:101AD000907E95BB98B3907298BBE5E0F0E0DF0193
:101AE0001197F1F7AD9A3197F1F7880FAD98E3E0D0
:101AF000F0E03197F1F795B387FD58C0907E95BB24
:101B000098B3907298BBE5E0F0E0DF011197F1F730
:101B1000AD9A3197F1F7AD98E3E0F0E03197F1F746
:101B200086FD3DC085B3807E85BB88B3807288BB4F
:101B300085E090E0FC013197F1F7AD9AFC01319717
:101B4000F1F7AD98E3E0F0E03197F1F724B3207EB0
:101B500024BB27B3207227BB25B32F6125BB28B335
:101B60002F6D28BB25B32F6125BB28B32F6D28BB54
:101B7000FC013197F1F7AD9AFC013197F1F7AD987F
:101B80000197F1F784B38F6184BB87B38F6D87BBF7
:101B900008959F6195BB98B39F6D98BB30CF85B377
:101BA0008F6185BB88B38F6D88BBC2CF9F6195BBAA
:101BB00098B39F6D98BBA7CF9F6195BB98B39F6D5E
:101BC00098BB8BCF9F6195BB98B39F6D98BB6FCF30
:101BD0009F6195BB98B39F6D98BB53CF9F6195BB99
:101BE00098B39F6D98BB37CF9F6195BB98B39F6D9E
:101BF00098BB1BCFCF92DF92EF92FF920F931F9370
:101C0000CF93DF9348E080E8C090CD00D090CE0025
:101C1000E090CF00F090D0000091D1001091D20060
:101C2000D091D300C091D400B091D500A091D6003E
:101C30005091D70063E070E0AD9898B3907225B3EF
:101C4000207E3091CC00382309F09160382F3C2160
:101C500009F09260382F3D2109F09460382F3E2121
:101C600009F09860382F3F2109F09061382F302318
:101C700009F09064382F312309F09068382F3D2304
:101C800009F02160382F3C2309F02260382F3B23D4
:101C900009F02460382F3A2309F02860382F3523C3
:101CA00009F0206198BB25BBAD9AFB013197F1F794
:101CB0008695415009F0C0CFAD9883E090E0019740
:101CC000F1F784B3807E84BB87B3807287BB85B312
:101CD0008F6185BB88B38F6D88BB85B38F6185BBF2
:101CE00088B38F6D88BB85E090E0FC013197F1F7F8
:101CF000AD9AFC013197F1F7AD980197F1F784B3F4
:101D00008F6184BB87B38F6D87BBDF91CF911F91AC
:101D10000F91FF90EF90DF90CF900895DC0101C00C
:0E1D20006D9341505040E0F70895F894FFCFC6
:101D2E000C0C0C0C0C0C0C01010101010202030342
:0C1D3E0000020603010172019501AE01D4
:00000001FF
